:0400000077EF00F0A6
:10000800FACF0FF0FBCF10F0E9CF11F0EACF12F0E2
:10001800E1CF13F0E2CF14F0D9CF15F0DACF16F014
:10002800F3CF17F0F4CF18F0F6CF19F0F7CF1AF096
:10003800F8CF1BF0F5CF1CF0F2A404D046EC29F061
:10004800F29434D09EAA29D093EC28F03E6E3E500C
:10005800B6EC28F0D8B00DD03E5015EC28F0D8B04A
:1000680008D05B0E3E18D8B404D05D0E3E18D8A454
:1000780007D03EC0E7F03E5003EC29F03E6E00D0BA
:1000880043C068F04250D8B404D047EC1DF003D008
:100098000DD0A8EC1BF09E9A09D0A4AA07D081EC39
:1000A80028F03D6E79EC25F0A49A00D01CC0F5FF2D
:1000B8001BC0F8FF1AC0F7FF19C0F6FF18C0F4FFFD
:1000C80017C0F3FF16C0DAFF15C0D9FF14C0E2FF4E
:1000D80013C0E1FF12C0EAFF11C0E9FF10C0FBFF27
:0A00E8000FC0FAFF11007AEF24F0B8
:100600000002000100030004005B524553455441C1
:100610004E444F204D494E49204D41455354524F71
:100620002032345D005B5245534554414E444F5D8A
:10063000005B505254204F4B5D005B50524F4E5464
:100640004F5D005B4D4F565D005B4D4F560054397A
:10065000300041434C0056454C00544D4E0054521E
:10066000500045525200544D580047520000C40EED
:10067000236E010E246E5FEC1FF023502410D8B4BB
:10068000CBD06A0E1D6E000E1E6EF9EC26F00D0E1C
:100690001D181E10D8A45AD0000E0201B36F000E10
:1006A0000201B86F46D049D00201B8510001E16F94
:1006B000E26B040E0001E127000EE2236A0E000146
:1006C000E125D96E000E0001E221DA6EDF50020151
:1006D000AC6F300E0201AC19D8B405D0310E020156
:1006E000AC19D8A40AD00201B351020DF350020193
:1006F000AC25D00F0201B36F1AD00201B351020D25
:10070000F3CFB3F20201B8510001E16FE26B040EC6
:100710000001E127000EE2236A0E0001E125D96EF7
:10072000000E0001E221DA6E300EDF6E00D0020111
:10073000B82B070E0201B865B7D7B3C281FF6A0EA6
:100740001F6E000E206E6DEC20F012006A0E1D6E02
:10075000000E1E6EF9EC26F0050E1D181E10D8A412
:1007600054D03FEC29F05B0E37EC29F04C0E37ECFF
:1007700029F0450E37EC29F0440E37EC29F081AE14
:1007800002D0010E01D0000E300F37EC29F081AC01
:1007900002D0010E01D0000E300F37EC29F081AAF3
:1007A00002D0010E01D0000E300F37EC29F081A8E5
:1007B00002D0010E01D0000E300F37EC29F081A6D7
:1007C00002D0010E01D0000E300F37EC29F081A4C9
:1007D00002D0010E01D0000E300F37EC29F081A2BB
:1007E00002D0010E01D0000E300F37EC29F081A0AD
:1007F00002D0010E01D0000E300F37EC29F05D0E53
:1008000037EC29F03FEC29F01200C40E236E010EE4
:10081000246E41EC23F01200C80E236E010E246EEC
:100820005FEC1FF023502410D8B429D043EC28F0FB
:10083000E806D8A41DD0000E2F6E010E2E6E000EFD
:100840000201B16F050E0201B16502D01200120063
:10085000000E206E010E1F6E0201B151B9EC26F0A0
:100860000201B12B050E0201B165F2D71200120090
:10087000310E1F6E060E206E6DEC20F01200B80EC9
:10088000236E000E246E5FEC1FF023502410D8B4AA
:100890005DD06A0E1D6E000E1E6EF9EC26F0040E81
:1008A0001D181E10D8A44BD090C18EF191C18FF1AC
:1008B0008EC11FF08FC120F0050ED4EC25F0020E82
:1008C000000169612ED0050E0001E819D8B410D0DE
:1008D0000001E829D8B40CD0020E0001696FA90EFE
:1008E0000001646F000E0001656F0001E8690DD022
:1008F000B80E0001646F000E0001656F010E00016B
:10090000696F050E0001E86F00D0F40E0001C36F9F
:10091000010EC46F000EC56F000EC66F30EC21F0E3
:1009200000D000016651D8B4120003D0D8EC15F005
:1009300000D000016951D8B41200F8D71200B80EE7
:10094000236E000E246E41EC23F01200BB0E236ECA
:10095000000E246E5FEC1FF023502410D8B45DD03D
:100960006A0E1D6E000E1E6EF9EC26F0040E1D18A8
:100970001E10D8A44BD092C18EF193C18FF18EC1BD
:100980001FF08FC120F0050ED4EC25F0020E0001FF
:1009900069612ED0050E0001E819D8B410D000010D
:1009A000E829D8B40CD0020E0001696FA90E00012D
:1009B000646F000E0001656F0001E8690DD0BB0E89
:1009C0000001646F000E0001656F010E0001696F88
:1009D000050E0001E86F00D0F40E0001C36F010E98
:1009E000C46F000EC56F000EC66F30EC21F000D052
:1009F00000016651D8B4120003D0D8EC15F000D035
:100A000000016951D8B41200F8D71200BB0E236E52
:100A1000000E246E41EC23F01200990E236E000E9E
:100A2000246E5FEC1FF023502410D8B4F2D06A0E6D
:100A30001D6E000E1E6EF9EC26F0070E1D181E101E
:100A4000D8B407D0990E236E000E246E41EC23F02B
:100A500012004A0E00016E19D8A483D02F0E000197
:100A60006F657CD0350E00016F6178D000016F5149
:100A7000D00F0201BD6F0201BD511A0D120EF326F7
:100A8000000EF422000EF324D96E010EF420DA6E6B
:100A90000201BD511A0D0C0EF326000EF422000EB9
:100AA000F324E16E010EF420E26EDECFE6FFDDCF2F
:100AB000E5FF0201BD511A0D0C0EF326000EF422C3
:100AC000000EF324D96E010EF420DA6EDECF1FF093
:100AD000DDCF20F00201BD51D4EC25F0020E000163
:100AE00069612ED00201BD510001E819D8B410D0BF
:100AF0000001E829D8B40CD0020E0001696FA90EDC
:100B00000001646F000E0001656F0001E8690CD000
:100B1000990E0001646F000E0001656F010E000167
:100B2000696FBDC2E8F000D0F40E0001C36F010E82
:100B3000C46F000EC56F000EC66F30EC21F000D000
:100B400000016651D8B4120003D0D8EC15F000D0E3
:100B500000016951D8B41200F8D71200D9EC26F080
:100B60001200470E00016E19D8A450D0520E000199
:100B70006F19D8A44BD094C18EF195C18FF18EC15D
:100B80001FF08FC120F0050ED4EC25F0020E0001FD
:100B900069612ED0050E0001E819D8B410D000010B
:100BA000E829D8B40CD0020E0001696FA90E00012B
:100BB000646F000E0001656F0001E8690DD0990EA9
:100BC0000001646F000E0001656F010E0001696F86
:100BD000050E0001E86F00D0F40E0001C36F010E96
:100BE000C46F000EC56F000EC66F30EC21F000D050
:100BF00000016651D8B4120003D0D8EC15F000D033
:100C000000016951D8B41200F8D71200D9EC26F0CF
:100C10001200A90E236E000E246E5FEC1FF023500D
:100C20002410D8B49CD16A0E1D6E000E1E6EF9EC15
:100C300026F01DC0C0F21EC0C1F20201C15122E166
:100C4000240E0201C05DD8B01DD00201C15105E1E2
:100C5000050E0201C05DD8A015D0C0C224F0C1C2EB
:100C600025F0000E276E050E266E27EC26F0245088
:100C70002510D8B40ED0060E0201C0190201C11110
:100C8000D8B407D0A90E236E000E246E41EC23F0D9
:100C90001200050E0201C0190201C111D8A428D00A
:100CA000000E0201C36F000EC26F0201C35116E1B4
:100CB000060E0201C25DD8B011D001D00FD0C2C261
:100CC000C5F0C3C2C6F0C2C2C7F0C3C2C8F0FDECD3
:100CD0000FF00201C24BC32BE8D700D05D0E00011C
:100CE0008C6F6A0E1F6E000E206E6DEC20F01200ED
:100CF000060E0201C0190201C111D8A444D0400E51
:100D000000016E6522D0460E00016E611ED0BF0E3E
:100D100000016E250201B46F0201B56BFF0EB52311
:100D2000000E0001C66F000EC56FB4C2C7F0B5C299
:100D3000C8F0FDEC0FF05D0E0001736F6A0E1F6EC0
:100D4000000E206E6DEC20F01200470E00016E19AF
:100D5000D8A416D0000E0001C66F000EC56F000E9D
:100D60000001C86F050EC76FFDEC0FF05D0E0001AE
:100D7000736F6A0E1F6E000E206E6DEC20F0120075
:100D8000D9EC26F01200000E0201C36F000EC26FF4
:100D9000000E0201BA6F040EB96F050E0201B26FA8
:100DA00071D06A0E0201B925D96E000E0201BA2176
:100DB000DA6E400EDF643ED06A0E0201B925D96EAC
:100DC000000E0201BA21DA6E460EDF6033D06A0EE1
:100DD0000201B925D96E000E0201BA21DA6EDF5088
:100DE0000001E16FBF0E0001E1250201B46F0201B5
:100DF000B56BFF0EB5230201B2510201B45DD8B04C
:100E000003D0B4C2B2F200D0C2C2C5F0C3C2C6F0B1
:100E1000B4C2C7F0B5C2C8F0FDEC0FF00001C55177
:100E20000001C611D8A425D0000E0201C36F060E22
:100E3000C26F1FD06A0E0201B925D96E000E0201E1
:100E4000BA21DA6E470EDE18D8A40DD0C2C2C5F0A2
:100E5000C3C2C6F0000E0001C86F050EC76FFDECDF
:100E60000FF0DCD706D0000E0201C36F060EC26F72
:100E700000D00201C24BC32B050E0201B927000EA0
:100E8000BA2300D00201C35123E1060E0201C25D64
:100E9000D8B01ED0FF0E0001E16FFF0E0001E26F1F
:100EA000C0C2E3F0C1C2E4F00001E1510001E32758
:100EB0000001E2510001E4230001E3510201B95DA8
:100EC0000001E4510201BA59D8B002D06AD700D06B
:100ED0000201C35105E1070E0201C25DD8A007D08F
:100EE000A90E236E000E246E41EC23F012000201C5
:100EF000B2510001E16FE26B0001E11FE21FE14B23
:100F0000E22B060E0001E1251F6E000E0001E2211A
:100F1000206EB2C221F0BAEC22F0A90E0001646F7B
:100F2000000E0001656F020E0001696FF40E0001F2
:100F3000C36F010EC46F000EC56F000EC66F30EC9C
:100F400021F000016651D8B4120003D0D8EC15F09E
:100F500000D000016951D8B41200F8D71200AD0ECC
:100F6000236E000E246E5FEC1FF023502410D8B4C3
:100F70007CD06A0E1D6E000E1E6EF9EC26F0050E7A
:100F80001D181E10D8A46AD0000E0201B76F000E03
:100F9000B66F0201B75138E1050E0201B65DD8B057
:100FA00033D001D031D0B6C21DF0B7C21EF0000E52
:100FB000206E1A0E1F6E59EC28F0140E1D26000E1E
:100FC0001E22000E1D24D96E010E1E20DA6EB6C23E
:100FD0001DF0B7C21EF0000E206E1A0E1F6E59ECE7
:100FE00028F00C0E1D26000E1E22000E1D24E16EA0
:100FF000010E1E20E26EDECFE6FFDDCFE5FF02012F
:10100000B64BB72BC6D700D0000E206E050E1F6E54
:10101000000E216EBAEC22F0AD0E0001646F000EDE
:101020000001656F020E0001696FF40E0001C36FCD
:10103000010EC46F000EC56F000EC66F30EC21F0BC
:1010400000016651D8B4120003D0D8EC15F000D0DE
:1010500000016951D8B41200F8D71200AD0E236E0A
:10106000000E246E41EC23F012009D0E236E000E44
:10107000246E5FEC1FF023502410D8B468D06A0EA1
:101080001D6E000E1E6EF9EC26F0050E1D181E10CA
:10109000D8A456D0000E0201AE6F000EAD6F020153
:1010A000AE5124E1060E0201AD5DD8B01FD001D0D3
:1010B0001DD0ADC21DF0AEC21EF0000E206E1A0E85
:1010C0001F6E59EC28F00C0E1D26000E1E22000E7D
:1010D0001D24D96E010E1E20DA6E000EDE6E000E8B
:1010E000DD6E0201AD4BAE2BDAD700D0000E206EC4
:1010F000060E1F6E000E216EBAEC22F09D0E00014E
:10110000646F000E0001656F020E0001696FF40E3E
:101110000001C36F010EC46F000EC56F000EC66FD5
:1011200030EC21F000016651D8B4120003D0D8ECA5
:1011300015F000D000016951D8B41200F8D71200A0
:101140009D0E236E000E246E41EC23F01200DC0E87
:10115000236E010E246E5FEC1FF023502410D8B4D0
:1011600015D0DC0E0001D86F010E0001D96F10EC14
:101170001EF00001D8510001D911D8B412006A0E36
:101180001F6E000E206E6DEC20F01200D80E236E44
:10119000010E246E5FEC1FF023502410D8B415D03C
:1011A000D80E0001D86F010E0001D96F10EC1EF0AF
:1011B0000001D8510001D911D8B412006A0E1F6E77
:1011C000000E206E6DEC20F01200D40E236E010E86
:1011D000246E5FEC1FF023502410D8B415D0D40E29
:1011E0000001D86F010E0001D96F10EC1EF0000154
:1011F000D8510001D911D8B412006A0E1F6E000E2A
:10120000206E6DEC20F01200E00E236E010E246EB5
:101210005FEC1FF023502410D8B415D0E00E00016D
:10122000D86F010E0001D96F10EC1EF00001D851EB
:101230000001D911D8B412006A0E1F6E000E206E84
:101240006DEC20F01200B10E236E000E246E5FECE8
:101250001FF023502410D8B437D0B10E0001D86F3E
:10126000000E0001D96F10EC1EF00001D8510001F2
:10127000D911D8B412003A501A0D160EF326000EEA
:10128000F422000EF324D96E010EF420DA6EDECFC4
:101290001FF0DDCF20F03A50B9EC26F01F5020109F
:1012A000D8B409D0CCEC27F06A0E1F6E000E206E69
:1012B0006DEC20F0120068EC27F0B10E236E000EEA
:1012C000246E01EC23F01200910E236E000E246EAA
:1012D0005FEC1FF023502410D8B437D0910E0001DA
:1012E000D86F000E0001D96F10EC1EF00001D8512C
:1012F0000001D911D8B412003A501A0D180EF32675
:10130000000EF422000EF324D96E010EF420DA6EE2
:10131000DECF1FF0DDCF20F03A5099EC26F01F50C1
:101320002010D8B409D0E5EC27F06A0E1F6E000E2D
:10133000206E6DEC20F0120081EC27F0910E236EF0
:10134000000E246E01EC23F01200A10E236E000E9D
:10135000246E5FEC1FF023502410D8B452D06A0ED4
:101360001D6E000E1E6EF9EC26F01DC0A1F21EC00F
:10137000A2F2060E0201A1190201A211D8A424D0E2
:1013800000016E51D00F0201A76F11D000D0A7C28B
:1013900067F06A0E1F6E000E206E6DEC20F01200DA
:1013A000A10E236E000E246E41EC23F01200020108
:1013B000A751000AD8B4EBD7010AD8B4E8D7030A7A
:1013C000D8B4E5D7EDD71200050E0201A11902012C
:1013D000A211D8A40FD000016751300F00016E6F29
:1013E0005D0E00016F6F6A0E1F6E000E206E6DECB9
:1013F00020F01200A10E236E000E246E41EC23F0AB
:101400001200950E236E000E246E5FEC1FF0235029
:101410002410D8B44ED06A0E1D6E000E1E6EF9EC6C
:1014200026F01DC0A3F21EC0A4F2060E0201A319ED
:101430000201A411D8A420D000016E51D00F0201E6
:10144000A86F10D0A8C266F06A0E1F6E000E206E44
:101450006DEC20F01200950E236E000E246E41EC10
:1014600023F012000201A851000AD8B4EBD7010AF8
:10147000D8B4E8D7F0D71200050E0201A319020173
:10148000A411D8A40FD000016651300F00016E6F77
:101490005D0E00016F6F6A0E1F6E000E206E6DEC08
:1014A00020F01200950E236E000E246E41EC23F006
:1014B0001200B40E236E010E246E5FEC1FF0235059
:1014C0002410D8B41AD0EAEC24F0D1C09CF2D2C0D7
:1014D0009DF29CC224F09DC225F06E0E266E000E79
:1014E000276E71EC22F05D0E0001726F6A0E1F6EA6
:1014F000000E206E6DEC20F01200A50E236E000E83
:10150000246E5FEC1FF023502410D8B4DFD06A0E95
:101510001D6E000E1E6EF9EC26F01E5004E1070E43
:101520001D5CD8A01CD06A0E1D6E000E1E6EF9EC5C
:1015300026F01E5014E1090E1D5CD8B010D06A0EC2
:101540001D6E000E1E6EF9EC26F0080E1D181E1002
:10155000D8A40CD0530E00017019D8B407D0A50E32
:10156000236E000E246E41EC23F012004A0E00019F
:101570006E19D8A45ED02F0E00016F6557D0350EBE
:1015800000016F6153D000016F51D00F0201A96FAC
:101590000201A9513DEC24F0D1C0BEF2D2C0BFF28D
:1015A0000201BE2904E10201BF29D8B438D070C0BD
:1015B000ABF2BEC2BFF0BFC2C0F0700E0001C16F7F
:1015C000000E0001C26FC0EC23F0530E0201AB19F4
:1015D000D8A41AD00201A9511A0D0C0EF326000E40
:1015E000F422000EF324D96E010EF420DA6EBEC28E
:1015F000DEFFBFC2DDFFB3EC27F0530E0001746FB6
:101600005D0E0001756F04D05D0E0001746F00D097
:101610006A0E1F6E000E206E6DEC20F01200A50EFB
:10162000236E000E246E01EC23F01200D9EC26F09C
:101630001200470E00016E19D8A445D0520E0001C9
:101640006F19D8A440D0050E3DEC24F0D1C0BEF2F5
:10165000D2C0BFF20201BE2904E10201BF29D8B401
:101660002BD070C0ABF2BEC2BFF0BFC2C0F0700ED4
:101670000001C16F000E0001C26FC0EC23F0530ED9
:101680000201AB19D8A40DD0BEC28EF1BFC28FF13A
:10169000B3EC27F0530E0001746F5D0E0001756FFF
:1016A00004D05D0E0001746F00D06A0E1F6E000E34
:1016B000206E6DEC20F01200A50E236E000E246E3D
:1016C00001EC23F01200D9EC26F01200B80E236EC4
:1016D000010E246E5FEC1FF023502410D8B430D0DC
:1016E00043EC28F002019E6F21D0300E00016E6F96
:1016F0005D0E00016F6F6A0E1F6E000E206E6DECA6
:1017000020F01200310E00016E6F5D0E00016F6F50
:101710006A0E1F6E000E206E6DEC20F01200B80EE7
:10172000236E010E246E01EC23F0120002019E5183
:10173000000AD8B4DAD7010AD8B4E4D7F0D7120037
:10174000D00E236E010E246E5FEC1FF02350241088
:10175000D8B465D03FEC29F0540E37EC29F0450E93
:1017600037EC29F04D0E37EC29F0500E37EC29F00C
:101770004F0E37EC29F0200E37EC29F0440E37ECF1
:1017800029F04F0E37EC29F0530E37EC29F0200EDC
:1017900037EC29F0530E37EC29F0450E37EC29F0E1
:1017A000520E37EC29F0560E37EC29F04F0E37EC7D
:1017B00029F0530E37EC29F03A0E37EC29F03FECC4
:1017C00029F0000E0201B06F000EAF6F0201B0BF32
:1017D0000AD00201B05120E1060E0201AF5DD8B07F
:1017E0001BD001D019D0AFC21DF0B0C21EF0000E48
:1017F000206E1A0E1F6E59EC28F0000E1D240001F9
:10180000C56F010E1E200001C66FE8EC13F0020147
:10181000AF4BB02BDBD700D097EC1AF01200CC0EF8
:10182000236E010E246E5FEC1FF023502410D8B4F9
:101830009DD06A0E1D6E000E1E6EF9EC26F0060E8F
:101840001D181E10D8A41DD04D0E00016E19D8A46D
:1018500018D03FEC29F0090E1F6E060E206E1DEC0D
:1018600025F03FEC29F08398F7EC11F03FEC29F0DC
:101870003A0E1F6E060E206E1DEC25F03FEC29F08F
:1018800012006A0E1D6E000E1E6EF9EC26F0050E9B
:101890001D181E10D8A463D06A0E1F6E000E206E95
:1018A0006DEC20F03FEC29F0250E1F6E060E206E29
:1018B0001DEC25F03FEC29F0000E816E000E0201B8
:1018C000BC6F000EBB6F0201BCBF0AD00201BC514D
:1018D00019E1080E0201BB5DD8B014D001D012D0BE
:1018E000D8808136C80E0001C36F000EC46F000E91
:1018F000C56F000EC66F30EC21F00201BB4BBC2B54
:10190000E2D700D0000E0201A06F010E9F6F000E03
:101910000201BC6FFE0EBB6F0201BCBF1ED001D026
:101920001CD081500201BB15816E0201D8909F37F7
:10193000A037C80E0001C36F000EC46F000EC56F44
:10194000000EC66F30EC21F002019F510201BB5F17
:101950000201A0510201BC5BDFD7FF001200CC0ED8
:10196000236E010E246E41EC23F01200B00E236EA4
:10197000010E246E5FEC1FF023502410D8B44DD01C
:101980006A0E1D6E000E1E6EF9EC26F01DC0A5F24B
:101990001EC0A6F2060E0201A5190201A611D8A4C6
:1019A00020D000016E51D00F0201AA6F10D0AAC240
:1019B00043F06A0E1F6E000E206E6DEC20F01200D8
:1019C000B00E236E010E246E41EC23F012000201D2
:1019D000AA51000AD8B4EBD7010AD8B4E8D7F0D797
:1019E0001200050E0201A5190201A611D8A40ED0FD
:1019F0004350300F00016E6F5D0E00016F6F6A0E75
:101A00001F6E000E206E6DEC20F01200B00E236EE3
:101A1000010E246E41EC23F012003FEC29F05B0E26
:101A200037EC29F0430E37EC29F04D0E37EC29F056
:101A3000440E37EC29F0200E37EC29F04E0E37EC2F
:101A400029F0410E37EC29F04B0E37EC29F05D0EF2
:101A500037EC29F03FEC29F012001200000E0001D3
:101A6000CF6F000ECE6F000E0001CD6F8292050E7B
:101A70000001C36F000EC46F000EC56F000EC66F6D
:101A800030EC21F08282640E0001C36F000EC46F3F
:101A9000000EC56F000EC66F30EC21F0000E816E97
:101AA00082A6120001D012003FEC29F05B0E37EC49
:101AB00029F0420E37EC29F0540E37EC29F0430E92
:101AC00037EC29F0460E37EC29F0470E37EC29F0B9
:101AD0005D0E37EC29F03FEC29F000D0810E816ECD
:101AE000240E37EC29F0240E37EC29F0240E37ECC5
:101AF00029F0E80E0001C36F030EC46F000EC56F1E
:101B0000000EC66F30EC21F00001CE4BCF2B0A0E39
:101B10000001CE190001CF11D8A453D03FEC29F019
:101B20005B0E37EC29F0420E37EC29F0540E37ECFF
:101B300029F0430E37EC29F0460E37EC29F0470E1A
:101B400037EC29F0200E37EC29F0450E37EC29F060
:101B5000520E37EC29F0520E37EC29F05D0E37ECBF
:101B600029F03FEC29F0000E816E000E0001CF6FCE
:101B7000000ECE6F1CD0F40E0001C36F010EC46FB7
:101B8000000EC56F000EC66F30EC21F0811EF40E02
:101B90000001C36F010EC46F000EC56F000EC66F4B
:101BA00030EC21F0811E0001CE4BCF2B00D0000184
:101BB000CF5106E1050E0001CE5DD8B01200DBD793
:101BC0001200030EF66E060EF76E25EC29F00001EA
:101BD000CB6FCC6B0900F5500001CB1905E1090072
:101BE000F5500001CC19D8A479D7010E816E00D030
:101BF000530E37EC29F04E0E37EC29F02C0E37EC53
:101C000029F06E0E37EC29F06F0E37EC29F0760EC6
:101C100037EC29F0610E37EC29F0700E37EC29F023
:101C2000720E37EC29F06F0E37EC29F0740E37EC9A
:101C300029F06F0E37EC29F0630E37EC29F06C0EAB
:101C400037EC29F00D0E37EC29F0F40E0001C36FCC
:101C5000010EC46F000EC56F000EC66F30EC21F090
:101C6000010EF66E060EF76E25EC29F00001CB6F23
:101C7000CC6B0900F5500001CB19BAE10900F55011
:101C80000001CC19D8A4B4D781508124816E00D032
:101C9000530E37EC29F04F0E37EC29F02C0E37ECB1
:101CA00029F0420E37EC29F0540E37EC29F0480E9B
:101CB00037EC29F00D0E37EC29F0200E0001C36F30
:101CC000030EC46F000EC56F000EC66F30EC21F01E
:101CD000010EF66E060EF76E25EC29F00001CB6FB3
:101CE000CC6B0900F5500001CB19D2E10900F55089
:101CF0000001CC19D8A4CCD781508124816E00D0AA
:101D0000530E37EC29F04D0E37EC29F02C0E37EC42
:101D100029F0300E37EC29F00D0E37EC29F0200EAB
:101D20000001C36F030EC46F000EC56F000EC66FB7
:101D300030EC21F0010EF66E060EF76E25EC29F060
:101D40000001CB6FCC6B0900F5500001CB19D8E135
:101D50000900F5500001CC19D8A4D2D781508124B4
:101D6000816E00D0530E37EC29F0410E37EC29F08C
:101D70002C0E37EC29F0310E37EC29F00D0E37EC34
:101D800029F0200E0001C36F030EC46F000EC56F53
:101D9000000EC66F30EC21F0010EF66E060EF76EE7
:101DA00025EC29F00001CB6FCC6B0900F550000148
:101DB000CB19D8E10900F5500001CC19D8A4D2D72D
:101DC00081508124816E00D0530E37EC29F0500EE3
:101DD00037EC29F02C0E37EC29F0310E37EC29F0D6
:101DE000320E37EC29F0330E37EC29F0340E37EC95
:101DF00029F00D0E37EC29F0200E0001C36F030E01
:101E0000C46F000EC56F000EC66F30EC21F0010EDE
:101E1000F66E060EF76E25EC29F00001CB6FCC6B49
:101E20000900F5500001CB19CFE10900F550000180
:101E3000CC19D8A4C9D781508124816E00D02D0E31
:101E400037EC29F02D0E37EC29F02D0E37EC29F068
:101E50000D0E37EC29F0200E0001C36F030EC46F86
:101E6000000EC56F000EC66F30EC21F0070EF66E47
:101E7000060EF76E25EC29F00001CB6FCC6B090044
:101E8000F5500001CB19DBE10900F5500001CC1938
:101E9000D8A4D5D73FEC29F05B0E37EC29F0420EE1
:101EA00037EC29F0540E37EC29F0430E37EC29F0CB
:101EB000460E37EC29F0470E37EC29F0200E37ECB0
:101EC00029F04F0E37EC29F04B0E37EC29F05D0E60
:101ED00037EC29F03FEC29F081508124816E82AAF1
:101EE00019D03FEC29F05B0E37EC29F0420E37ECAD
:101EF00029F0540E37EC29F0430E37EC29F05D0E33
:101F000037EC29F03FEC29F005D025EC29F0000151
:101F1000CD6F00D082AA16D0050EF66E060EF76EB3
:101F20000001CD510001CB6FCC6B0900F5500001D1
:101F3000CB19EBE10900F5500001CC19D8B402D05F
:101F4000E4D700D03FEC29F0050EF66E060EF76ED2
:101F50000001CD510001CB6FCC6B0900F5500001A1
:101F6000CB191FE10900F5500001CC19D8A419D0F4
:101F70005B0E37EC29F0420E37EC29F0540E37ECAB
:101F800029F0430E37EC29F0200E37EC29F04F0EE4
:101F900037EC29F04B0E37EC29F05D0E37EC29F0C9
:101FA0001BD05B0E37EC29F0420E37EC29F0540EB3
:101FB00037EC29F0430E37EC29F0200E37EC29F0EE
:101FC000440E37EC29F0530E37EC29F0420E37EC73
:101FD00029F05D0E37EC29F03FEC29F08150812487
:101FE000816EE80E0001C36F030EC46F000EC56F53
:101FF000000EC66F30EC21F01200C5C01DF0C6C047
:102000001EF0000E206E050E1F6E59EC28F01DC04C
:10201000DAF01EC0DBF06A0E1D6E000E1E6EF9ECCB
:1020200026F01DC0D0F01EC0D1F00001D15105E155
:102030000A0E0001D05DD8A051D1D0C024F0D1C08B
:1020400025F0000E276E050E266E27EC26F0245094
:102050002510D8A443D1050E0001DA250001C96F6F
:10206000000E0001DB210001CA6F6A0E0001C925C4
:10207000D96E000E0001CA21DA6EDF500001D26F66
:10208000060E0001DA250001C96F000E0001DB21F8
:102090000001CA6F6A0E0001C925D96E000E000149
:1020A000CA21DA6EDF500001D36F070E0001DA2576
:1020B0000001C96F000E0001DB210001CA6F6A0E2A
:1020C0000001C925D96E000E0001CA21DA6EDF5069
:1020D0000001D46F080E0001DA250001C96F000E5F
:1020E0000001DB210001CA6F6A0E0001C925D96E0B
:1020F000000E0001CA21DA6EDF500001D56F000129
:10210000D251A5EC28F0D8A0E2D00001D351A5EC23
:1021100028F0D8A0DCD00001D451A5EC28F0D8A03C
:10212000D6D00001D551A5EC28F0D8A0D0D0D00E43
:102130000001D2251D6E1E6AFF0E1E22030E206EA8
:10214000E80E1F6E59EC28F00001D5510001C96F4F
:10215000CA6B1D500001C9271E500001CA23D00EB2
:102160000001D3251D6E1E6AFF0E1E22000E206E7A
:10217000640E1F6E59EC28F01D500001C9271E5037
:102180000001CA23D00E0001D4251D6E1E6AFF0E69
:102190001E22000E206E0A0E1F6E59EC28F01D50F4
:1021A0000001C9271E500001CA23D00E0001C92515
:1021B0000001D86FFF0E0001CA210001D96F000194
:1021C000D8510001D911D8B469D0C7C01DF0C8C01A
:1021D0001EF0000E206E1A0E1F6E59EC28F00E0E27
:1021E0001D26000E1E22000E1D24D96E010E1E207B
:1021F000DA6E0001D851DE5C0001D951DE58D8B04A
:1022000018D0C7C01DF0C8C01EF0000E206E1A0EF8
:102210001F6E59EC28F00E0E1D26000E1E22000E19
:102220001D24D96E010E1E20DA6EDECFD8F0DDCF70
:10223000D9F0C7C01DF0C8C01EF0000E206E1A0EE7
:102240001F6E59EC28F0100E1D26000E1E22000EE7
:102250001D24D96E010E1E20DA6EDE500001D85DFD
:10226000DE500001D959D8B019D0C7C01DF0C8C080
:102270001EF0000E206E1A0E1F6E59EC28F0100E84
:102280001D26000E1E22000E1D24D96E010E1E20DA
:10229000DA6EDECFD8F0DDCFD9F000D0C7C01DF0A8
:1022A000C8C01EF0000E206E1A0E1F6E59EC28F0EA
:1022B0000C0E1D26000E1E22000E1D24D96E010ECE
:1022C0001E20DA6ED8C0DEFFD9C0DDFF07D0000EB9
:1022D0000001C66F000EC56F120000D0C7C01DF010
:1022E000C8C01EF0000E206E1A0E1F6E59EC28F0AA
:1022F0000C0E1D26000E1E22000E1D24D96E010E8E
:102300001E20DA6EDECFBFF0DDCFC0F0CB0E0001B5
:10231000C16F000E0001C26FC0EC23F0000E00017F
:10232000D76F000ED66F0001D7BF0AD00001D7517A
:102330002FE1040E0001D65DD8B02AD001D028D0FC
:10234000CB0E0001D625D96E000E0001D721DA6E22
:102350000001DA510001D6250001C96F0001DB51EF
:102360000001D7210001CA6F050E0001C927000E28
:10237000CA236A0E0001C925E16E000E0001CA21C0
:10238000E26EDFCFE7FF0001D64BD72BCCD700D0D2
:10239000C7C01DF0C8C01EF0000E206E1A0E1F6EC2
:1023A00059EC28F00B0E1D26000E1E22000E1D24D7
:1023B000D96E010E1E20DA6E040E0001DA2500012E
:1023C000C96F000E0001DB210001CA6F6A0E000117
:1023D000C925E16E000E0001CA21E26EDFCFE7FFE2
:1023E000000E0001C66F010EC56F12001200B00E84
:1023F000D66ED768880ED56EF28A8388E80E000103
:10240000C36F030EC46F000EC56F000EC66F30ECB5
:1024100021F0000EF7EC1FF0D8C00CF1D9C00DF17F
:10242000010EF7EC1FF0D8C026F1D9C027F1020E3B
:10243000F7EC1FF0D8C040F1D9C041F1030EF7EC22
:102440001FF0D8C05AF1D9C05BF1040EF7EC1FF0B1
:10245000D8C074F1D9C075F1050EF7EC1FF0D8C0E3
:102460008EF1D9C08FF1090E01010F6F800E0E6F32
:10247000080E0101296FD00E286F080E0101436F6D
:10248000A00E426F090E01015D6FB00E5C6F090E68
:102490000101776F800E766F010E0101116FE00E62
:1024A000106F030E01012B6F000E2A6F030E010146
:1024B000456F200E446F020E01015F6F100E5E6FBC
:1024C000020E0101796F000E786F050E0101136F86
:1024D0007D0E126F070E01012D6F060E2C6F080E78
:1024E0000101476FA00E466F040E0101616FE30EFC
:1024F000606F050E01017B6FC00E7A6F070E010140
:10250000916FD00E906F010E0101936FA00E926F2C
:10251000040E0101956FB80E946F010E0101156F45
:10252000E00E146F080E01012F6FD00E2E6F030EF8
:102530000101496FBF0E486F070E0101636F2C0E3A
:10254000626F050E01017D6FC00E7C6F070E0101E9
:10255000976FD00E966F000E0101176F800E166FE9
:10256000000E0101316F800E306F000E01014B6FC4
:102570005C0E4A6F000E0101656F5C0E646F000E09
:1025800001017F6F800E7E6F000E0101996F640E56
:10259000986F000E0101196F100E186F000E0101E7
:1025A000336F100E326F000E01014D6F180E4C6F1D
:1025B000000E0101676F200E666F000E0101816F32
:1025C000200E806F000E01019B6F000E9A6F000EAF
:1025D0001D6E010E1E6E000E206E080E1F6EFEECAC
:1025E00027F04A0E0101006F550E0101016F4E0EDA
:1025F0000101026F540E0101036F410E0101046FCE
:10260000200E0101056F300E0101066F1A0E1D6EBE
:10261000010E1E6E000E206E080E1F6EFEEC27F0DF
:102620004A0E01011A6F550E01011B6F4E0E01017A
:102630001C6F540E01011D6F410E01011E6F200E13
:1026400001011F6F310E0101206F340E1D6E010E4E
:102650001E6E000E206E080E1F6EFEEC27F04A0E56
:102660000101346F550E0101356F4E0E0101366FB9
:10267000540E0101376F410E0101386F200E010128
:10268000396F320E01013A6F4E0E1D6E010E1E6E35
:10269000000E206E080E1F6EFEEC27F04A0E0101A0
:1026A0004E6F550E01014F6F4E0E0101506F540ECB
:1026B0000101516F410E0101526F200E0101536F54
:1026C000330E0101546F680E1D6E010E1E6E000E5A
:1026D000206E080E1F6EFEEC27F04A0E0101686F97
:1026E000550E0101696F4E0E01016A6F540E010112
:1026F0006B6F410E01016C6F200E01016D6F340E86
:1027000001016E6F820E1D6E010E1E6E000E206E98
:10271000080E1F6EFEEC27F0470E0101826F410E7E
:102720000101836F520E0101846F520E0101856F0A
:10273000410E0101866F4A0E0101086F300E010142
:10274000096F000E01010A6F4A0E0101226F310E5E
:102750000101236F000E0101246F4A0E01013C6F3D
:10276000320E01013D6F000E01013E6F4A0E010164
:10277000566F330E0101576F000E0101586F4A0E5C
:102780000101706F340E0101716F000E0101726F53
:10279000470E01018A6F520E01018B6F000E01017D
:1027A0008C6F410E01010B6F420E0101256F430E2C
:1027B00001013F6F440E0101596F450E0101736F16
:1027C000470E01018D6FB3EC27F07CEC1CF012007A
:1027D000000E0001CD6F000ECC6F11D00001CC5166
:1027E0000001C525D96E0001CD510001C621DA6E68
:1027F000DF5037EC29F00001CC4BCD2B00D0C5C009
:102800001DF0C6C01EF0F9EC26F01D500001CC5D95
:102810001E500001CD59D8A0E1D73A0E37EC29F06F
:102820003FEC29F0200E37EC29F0540E37EC29F05C
:102830004D0E37EC29F0500E37EC29F0200E37EC16
:1028400029F0500E37EC29F0550E37EC29F04C0EDC
:1028500037EC29F0530E37EC29F04F0E37EC29F006
:10286000200E37EC29F03D0E37EC29F0200E37EC26
:1028700029F0000120EE0CF0C551D926C651DA220C
:10288000DECFBFF0DDCFC0F0C70E0001C16F000E7C
:102890000001C26FC0EC23F0C70E1F6E000E206E49
:1028A0001DEC25F03FEC29F0200E37EC29F0540EFA
:1028B00037EC29F04D0E37EC29F0500E37EC29F0AB
:1028C000200E37EC29F0080E0001C5251D6E000E04
:1028D0000001C6211E6E6A0E1F6E060E206E50ECA1
:1028E00026F01D501E10D8A428D0470E37EC29F032
:1028F000410E37EC29F0520E37EC29F0520E37EC2E
:1029000029F0410E37EC29F0200E37EC29F0460E65
:1029100037EC29F0450E37EC29F0430E37EC29F05F
:10292000480E37EC29F0410E37EC29F0440E37EC15
:1029300029F0410E37EC29F012D04D0E37EC29F07A
:10294000490E37EC29F04E0E37EC29F0490E37ECE2
:1029500029F04D0E37EC29F04F0E37EC29F03A0EE6
:1029600037EC29F0200E37EC29F0000120EE10F0B2
:10297000C551D926C651DA22DECFBFF0DDCFC0F077
:10298000C70E0001C16F000E0001C26FC0EC23F042
:10299000C70E1F6E000E206E1DEC25F03FEC29F0D7
:1029A000200E37EC29F0540E37EC29F04D0E37ECA1
:1029B00029F0500E37EC29F0200E37EC29F0080EE4
:1029C0000001C5251D6E000E0001C6211E6E6A0E97
:1029D0001F6E060E206E50EC26F01D501E10D8A45F
:1029E00025D0470E37EC29F0410E37EC29F0520E76
:1029F00037EC29F0520E37EC29F0410E37EC29F074
:102A0000200E37EC29F0410E37EC29F0420E37EC5E
:102A100029F0450E37EC29F0520E37EC29F0540E10
:102A200037EC29F0410E37EC29F012D04D0E37EC7F
:102A300029F0410E37EC29F0580E37EC29F0490EF9
:102A400037EC29F04D0E37EC29F04F0E37EC29F01A
:102A50003A0E37EC29F0200E37EC29F0000120EE79
:102A60000EF0C551D926C651DA22DECFBFF0DDCF38
:102A7000C0F0C70E0001C16F000E0001C26FC0ECB4
:102A800023F0C70E1F6E000E206E1DEC25F03FECEC
:102A900029F0200E37EC29F0540E37EC29F04D0EBA
:102AA00037EC29F0500E37EC29F0200E37EC29F0E6
:102AB000080E0001C5251D6E000E0001C6211E6E08
:102AC0006A0E1F6E060E206E50EC26F01D501E1072
:102AD000D8A434D0470E37EC29F0410E37EC29F05A
:102AE000520E37EC29F0520E37EC29F0410E37EC3C
:102AF00029F0200E37EC29F0530E37EC29F0450E63
:102B000037EC29F04D0E37EC29F0490E37EC29F05F
:102B1000200E37EC29F0410E37EC29F0420E37EC4D
:102B200029F0450E37EC29F0520E37EC29F0540EFF
:102B300037EC29F0410E37EC29F018D0390E37EC7C
:102B400029F0300E37EC29F0200E37EC29F0470E33
:102B500037EC29F0520E37EC29F0410E37EC29F012
:102B6000550E37EC29F0530E37EC29F03A0E37ECBE
:102B700029F0200E37EC29F0000120EE12F0C551AB
:102B8000D926C651DA22DECFBFF0DDCFC0F0C70EA6
:102B90000001C16F000E0001C26FC0EC23F0C70E30
:102BA0001F6E000E206E1DEC25F03FEC29F0120088
:102BB000CBD143EC28F00001DD6F0001DD05D8B476
:102BC00051D05CD04FD02E502F10D8B4120078ECDA
:102BD00026F012002E502F10D8A478EC26F09C0E70
:102BE0001D6E010E1E6E000E206E140E1F6EFEEC8A
:102BF00027F00001E8513DEC24F0D1C0DBF0D2C059
:102C0000DCF03FEC29F0490E1F6E060E206E1DEC25
:102C100025F00001E8511A0D080EF326000EF422EB
:102C2000000EF3241F6E010EF420206E1DEC25F023
:102C3000DBC0BFF0DCC0C0F0D9EC20F05D0E37EC9B
:102C400029F012002E502F10D8B403D078EC26F0C3
:102C500000D03FEC29F0430E1F6E060E206E1DECD7
:102C600025F0120000016751000AD8B4ACD7010A60
:102C7000D8B4B0D7030AD8B4E5D712000001DD51AB
:102C80000001D8A447D0B3EC27F0FEEC25F03FECD0
:102C900029F05B0E37EC29F064C01FF065C020F00E
:102CA0001DEC25F0990E0001641905E1000E0001EC
:102CB0006519D8B409D0BC0E0001641915E1010EE4
:102CC00000016519D8A410D00001E8511A0D080EB2
:102CD000F326000EF422000EF3241F6E010EF420E2
:102CE000206E1DEC25F000D00001E8513DEC24F0F1
:102CF000D1C0DBF0D2C0DCF0DBC0BFF0DCC0C0F084
:102D0000D9EC20F05D0E37EC29F03FEC29F0F7EC20
:102D100028F012009AEC27F0FEEC25F064C023F0B6
:102D200065C024F001EC23F00001DD29D8B422D0E5
:102D3000DDC024F0256A9C0E266E010E276E71EC14
:102D400022F03FEC29F05B0E37EC29F0620E1F6E8B
:102D5000060E206E1DEC25F001019C5137EC29F088
:102D600001019D5137EC29F05D0E37EC29F03FEC65
:102D700029F000D0F7EC28F0120043EC28F0000115
:102D8000DD6F0001DD05D8B45BD066D059D02E5080
:102D90002F10D8B4120078EC26F012003FEC29F086
:102DA000490E1F6E060E206E1DEC25F0000E000170
:102DB000DE6F050E0001DE6501D02ED00001DE5170
:102DC0003DEC24F0D1C0DBF0D2C0DCF02E502F104F
:102DD000D8B409D0DBC01FF0DCC020F00001DE5108
:102DE000D4EC25F000D00001DE511A0D0B0EF326B5
:102DF000000EF422000EF324D96E010EF420DA6ED8
:102E0000DF5037EC29F0DBC0BFF0DCC0C0F0D9ECFC
:102E100020F00001DE2BCDD75D0E37EC29F012003B
:102E20002E502F10D8B403D078EC26F000D0430EEB
:102E30001F6E060E206E1DEC25F03FEC29F01200EF
:102E400000016751000AD8B4A2D7010AD8B4A6D7A6
:102E5000030AD8B4E5D712000001DD510001D8A45F
:102E600040D0B3EC27F0FEEC25F03FEC29F05B0EF0
:102E700037EC29F064C01FF065C020F01DEC25F090
:102E8000000E0001DE6F050E0001DE6501D021D0CD
:102E90000001DE513DEC24F0D1C0DBF0D2C0DCF00B
:102EA0000001DE511A0D0B0EF326000EF422000E67
:102EB000F324D96E010EF420DA6EDF5037EC29F0DE
:102EC000DBC0BFF0DCC0C0F0D9EC20F00001DE2B8D
:102ED000DAD75D0E37EC29F03FEC29F0F7EC28F05B
:102EE00012009AEC27F0FEEC25F064C023F065C0D8
:102EF00024F001EC23F00001DD29D8B422D0DDC09C
:102F000024F0256A9C0E266E010E276E71EC22F0CD
:102F10003FEC29F05B0E37EC29F0620E1F6E060EB7
:102F2000206E1DEC25F001019C5137EC29F00101C8
:102F30009D5137EC29F05D0E37EC29F03FEC29F07C
:102F400000D0F7EC28F0120000016951010AD8B452
:102F500030D6030AD8A4120010D71200BC0E1D6E82
:102F6000010E1E6E000E206E040E1F6EFEEC27F08A
:102F7000C00E1D6E010E1E6E000E206E040E1F6E22
:102F8000FEEC27F0C40E1D6E010E1E6E000E206EAC
:102F9000040E1F6EFEEC27F0C80E1D6E010E1E6E95
:102FA000000E206E040E1F6EFEEC27F0B80E1D6E94
:102FB000000E1E6E000E206E030E1F6EFEEC27F03C
:102FC000BB0E1D6E000E1E6E000E206E030E1F6ED9
:102FD000FEEC27F0990E1D6E000E1E6E000E206E88
:102FE000040E1F6EFEEC27F0A90E1D6E000E1E6E65
:102FF000000E206E040E1F6EFEEC27F0AD0E1D6E4F
:10300000000E1E6E000E206E040E1F6EFEEC27F0EA
:103010009D0E1D6E000E1E6E000E206E040E1F6EA5
:10302000FEEC27F0DC0E1D6E010E1E6E000E206EF3
:10303000040E1F6EFEEC27F0D80E1D6E010E1E6EE4
:10304000000E206E040E1F6EFEEC27F0D40E1D6ED7
:10305000010E1E6E000E206E040E1F6EFEEC27F099
:10306000E00E1D6E010E1E6E000E206E040E1F6E11
:10307000FEEC27F0B10E1D6E000E1E6E000E206ECF
:10308000040E1F6EFEEC27F0910E1D6E000E1E6EDC
:10309000000E206E040E1F6EFEEC27F0A10E1D6EBA
:1030A000000E1E6E000E206E040E1F6EFEEC27F04A
:1030B000950E1D6E000E1E6E000E206E040E1F6E0D
:1030C000FEEC27F0B40E1D6E010E1E6E000E206E7B
:1030D000040E1F6EFEEC27F0A50E1D6E000E1E6E78
:1030E000000E206E040E1F6EFEEC27F0B80E1D6E53
:1030F000010E1E6E000E206E040E1F6EFEEC27F0F9
:10310000D00E1D6E010E1E6E000E206E040E1F6E80
:10311000FEEC27F0CC0E1D6E010E1E6E000E206E12
:10312000040E1F6EFEEC27F0B00E1D6E010E1E6E1B
:10313000000E206E040E1F6EFEEC27F0490E0101FA
:10314000BC6F4E0E0101BD6F310E0101BE6F490E05
:103150000101C06F4E0E0101C16F320E0101C26F3D
:103160004C0E0101C46F450E0101C56F440E0101F3
:10317000C66F500E0101C86F520E0101C96F540E87
:103180000101CA6F470E0001B86F410E0001B96F0F
:10319000470E0001BB6F460E0001BC6F430E0001DD
:1031A000996F540E00019A6F5A0E00019B6F4A0EE0
:1031B0000001A96F530E0001AA6F540E0001AB6FFE
:1031C000520E0001AD6F500E0001AE6F530E0001A4
:1031D000AF6F440E00019D6F530E00019E6F4C0EA9
:1031E00000019F6F540E0101DC6F4D0E0101DD6F78
:1031F000580E0101DE6F540E0101D86F4D0E010112
:10320000D96F4E0E0101DA6F540E0101D46F390EE1
:103210000101D56F300E0101D66F540E0101E06F30
:10322000520E0101E16F500E0101E26F560E0001D6
:10323000B16F450E0001B26F4C0E0001B36F410E2D
:103240000001916F430E0001926F4C0E0001936FCD
:10325000460E0001A16F520E0001A26F530E000135
:10326000A36F430E0001956F530E0001966F420E3F
:103270000001976F450E0101B46F4D0E0101B56F4E
:103280004D0E0101B66F470E0001A56F540E0001EF
:10329000A66F500E0001A76F470E0101B86F4D0ECB
:1032A0000101B96F530E0101BA6F530E0101D06FC6
:1032B000540E0101D16F540E0101D26F520E010163
:1032C000CC6F530E0101CD6F540E0101CE6F450E30
:1032D0000101B06F430E0101B16F480E0101B26FE1
:1032E000000E936E000E816E1200000E0001CF6F73
:1032F000000ECE6F6A0E1D6E000E1E6EF9EC26F0EB
:103300000B0E1D181E10D8A486D070C0D2F071C04C
:10331000D3F072C0D4F073C0D5F00001D251A5EC47
:1033200028F0D8A072D00001D351A5EC28F0D8A085
:103330006CD00001D451A5EC28F0D8A066D00001D3
:10334000D551A5EC28F0D8A060D0D00E0001D22530
:103350001D6E1E6AFF0E1E22030E206EE80E1F6EEB
:1033600059EC28F00001D5510001C76FC86B1D5002
:103370000001C7271E500001C823D00E0001D3252D
:103380001D6E1E6AFF0E1E22000E206E640E1F6E42
:1033900059EC28F01D500001C7271E500001C8231A
:1033A000D00E0001D4251D6E1E6AFF0E1E22000ED7
:1033B000206E0A0E1F6E59EC28F01D500001C72721
:1033C0001E500001C823D00E0001C7250001D06F98
:1033D000FF0E0001C8210001D16F0001D051000192
:1033E000D111D8A409D0C5C0D9FFC6C0DAFF010EDB
:1033F000DE6E000EDD6E20D0C5C0D9FFC6C0DAFF7C
:10340000D0C0DEFFD1C0DDFF17D0000E0001CF6FAE
:10341000010ECE6F11D06A0E1D6E000E1E6EF9ECFD
:1034200026F0070E1D181E10D8B406D0000E00019D
:10343000CF6F010ECE6F00D00001CE510001CF1131
:10344000D8B428D03FEC29F05B0E37EC29F000010E
:103450006B5137EC29F000016C5137EC29F0000179
:103460006D5137EC29F0200E37EC29F04E0E37EC79
:1034700029F0410E37EC29F04B0E37EC29F05D0EA8
:1034800037EC29F03FEC29F0000E0001C66F000E6A
:10349000C56F1200C5C0D9FFC6C0DAFFDECFBFF0CE
:1034A000DDCFC0F0C90E0001C16F000E0001C26F78
:1034B000C0EC23F0000E0001D76F000ED66F0001A4
:1034C000D7BF0AD00001D75128E1040E0001D65D14
:1034D000D8B023D001D021D0C90E0001D625D96E95
:1034E000000E0001D721DA6E060E0001D62500017C
:1034F000C76F000E0001D7210001C86F6A0E0001DE
:10350000C725E16E000E0001C821E26EDFCFE7FFA4
:103510000001D64BD72BD3D700D05D0E0001746FBE
:10352000000E0001C66F010EC56F120012004C0E96
:1035300037EC29F0450E37EC29F0440E37EC29F032
:10354000530E37EC29F03A0E37EC29F0200E37EC09
:1035500029F0500E37EC29F0300E37EC29F03A0EF6
:1035600037EC29F0200E37EC29F081A002D0010EB3
:1035700001D0000E300F37EC29F0200E37EC29F087
:103580007C0E37EC29F0200E37EC29F0500E37EC8A
:1035900029F0310E37EC29F03A0E37EC29F0200EE5
:1035A00037EC29F081A202D0010E01D0000E300FBD
:1035B00037EC29F0200E37EC29F07C0E37EC29F09F
:1035C000200E37EC29F0500E37EC29F0320E37EC94
:1035D00029F03A0E37EC29F0200E37EC29F081A4BF
:1035E00002D0010E01D0000E300F37EC29F0200E72
:1035F00037EC29F07C0E37EC29F0200E37EC29F05F
:10360000500E37EC29F0330E37EC29F03A0E37EC38
:1036100029F0200E37EC29F081A602D0010E01D04E
:10362000000E300F37EC29F0200E37EC29F07C0E1D
:1036300037EC29F0200E37EC29F03FEC29F0200E72
:1036400037EC29F0200E37EC29F0200E37EC29F06A
:10365000200E37EC29F0200E37EC29F0200E37EC45
:1036600029F0500E37EC29F0340E37EC29F03A0EE1
:1036700037EC29F0200E37EC29F081A802D0010E9A
:1036800001D0000E300F37EC29F0200E37EC29F076
:103690007C0E37EC29F0200E37EC29F0500E37EC79
:1036A00029F0350E37EC29F03A0E37EC29F0200ED0
:1036B00037EC29F081AA02D0010E01D0000E300FA4
:1036C00037EC29F0200E37EC29F07C0E37EC29F08E
:1036D000200E37EC29F0500E37EC29F0360E37EC7F
:1036E00029F03A0E37EC29F0200E37EC29F081ACA6
:1036F00002D0010E01D0000E300F37EC29F0200E61
:1037000037EC29F07C0E37EC29F0200E37EC29F04D
:10371000500E37EC29F0370E37EC29F03A0E37EC23
:1037200029F0200E37EC29F081AE02D0010E01D035
:10373000000E300F37EC29F0200E37EC29F07C0E0C
:1037400037EC29F0200E37EC29F03FEC29F012007D
:103750003EC03CF03950D8A435D05B0E3C18D8A4FC
:1037600031D02AC001F02BC002F0000E046E270EEB
:10377000036E6DEC28F0000E0124076E030E02208C
:10378000086E000E0A6E270E096E2CEC28F02AC077
:1037900001F02BC002F0000E046E270E036E6DECDC
:1037A00028F0000E0124306E030E0220316E30C06E
:1037B000D9FF31C0DAFF3CC0DFFF304A312A010EA9
:1037C000396E12003904D8A412003F0E3C18D8B448
:1037D0001200080E3C18D8A426D03006D8A0310616
:1037E0002AC001F02BC002F0000E046E270E036EFB
:1037F0006DEC28F0000E0D6E030E0E6E01500D26BE
:1038000002500E220D50301807E10E503118D8A486
:1038100003D0000E396E00D030C0D9FF31C0DAFFBE
:10382000000EDF6E12005D0E3C18D8A409D030C027
:10383000D9FF31C0DAFF3CC0DFFFE8EC28F012000E
:103840005B0E3C18D8A42FD02AC001F02BC002F088
:10385000000E046E270E036E6DEC28F0000E01249E
:10386000076E030E0220086E000E0A6E270E096E08
:103870002CEC28F02AC001F02BC002F0000E046EE0
:10388000270E036E6DEC28F0000E0124306E030E3F
:103890000220316E30C0D9FF31C0DAFF3CC0DFFFFB
:1038A000304A312A120030C0D9FF31C0DAFF3CC0A3
:1038B000DFFF2AC001F02BC002F0000E046E270EBD
:1038C000036E6DEC28F0250E0126000E0222000E7C
:1038D0000D6E030E0E6E01500D2602500E220D507D
:1038E000305C0E503158D8B003D0304A312A120023
:1038F000E8EC28F01200120067C0DFF0010E0001B2
:10390000676F000E0001E06F050E0001E06501D059
:1039100013D0000E206E020E1F6E0001E05199ECD4
:1039200026F0000E206E0A0E1F6E0001E051B9EC69
:1039300026F00001E02BE8D7000E0001E06F050E35
:103940000001E06501D021D00001E0511A0D140EF4
:10395000F326000EF422000EF324D96E010EF4209B
:10396000DA6E0001E0511A0D0C0EF326000EF4225F
:10397000000EF324E16E010EF420E26EDECFE6FFCE
:10398000DDCFE5FF0001E02BDAD70CC11FF00DC140
:1039900020F0000ED4EC25F0BC0E0001646F010E87
:1039A0000001656F010E0001696F000E0001E86FF4
:1039B000F40E0001C36F010EC46F000EC56F000E40
:1039C000C66F30EC21F003D0D8EC15F000D0000128
:1039D0006951D8A4F9D7000E206E060E1F6E000E96
:1039E000216EBAEC22F0C00E0001646F010E0001DE
:1039F000656F020E0001696FF40E0001C36F010EC6
:103A0000C46F000EC56F000EC66F30EC21F003D0FE
:103A1000D8EC15F000D000016951D8A4F9D7000EF8
:103A20000001E06F2DD030D00001E0511A0D180ECA
:103A3000F326000EF422000EF324D96E010EF420BA
:103A4000DA6EDECF1FF0DDCF20F00001E05199ECFF
:103A500026F00001E0511A0D160EF326000EF42296
:103A6000000EF324D96E010EF420DA6EDECF1FF0C3
:103A7000DDCF20F00001E051B9EC26F00001E02B91
:103A8000050E0001E065D0D7DFC067F01200A4D0BA
:103A9000000E3F6E430E3E18D8A403D0010E366EC2
:103AA00000D0410E3E18D8A403D00B0E366E00D0C5
:103AB000450E3E18D8A412001F0E366E12004D0E91
:103AC0003E18D8A403D0020E366E12004F0E3E18D8
:103AD000D8A403D0160E366E1200000E366E1200F9
:103AE000440E3E18D8A40AD0030EF66E060EF76EEA
:103AF0000800F5CF3FF0280E366E1200000E366E2D
:103B000012004F0E3E18D8A403D00C0E366E1200D1
:103B1000000E366E12004B0E3E18D8A40AD0010ECD
:103B2000F66E060EF76E0800F5CF3FF0280E366EE3
:103B30001200000E366E12004E0E3E18D8A403D0AE
:103B4000170E366E1200000E366E12004E0E3E1824
:103B5000D8A40CD0050EF66E060EF76E0800F5CF51
:103B60003FF0010E416E3FC040F000D0000E366EB7
:103B700012004E0E3E18D8A403D0200E366E12004E
:103B8000000E366E1200440E3E18D8A40AD0070E5E
:103B9000F66E060EF76E0800F5CF3FF0280E366E73
:103BA0001200000E366E12000D0E3E18D8A403D07F
:103BB000290E366E1200000E366E12000A0E3E18E6
:103BC000D8A404D0010E416E3FC040F0000E366E06
:103BD0001200000E366E12003650000AD8B458D7C4
:103BE000010AD8B46CD7030AD8B47AD7090AD8B472
:103BF00088D7070AD8B48FD71A0AD8B49DD7010A34
:103C0000D8B4A4D7080AD8B4B4D73F0AD8B4BBD71D
:103C1000080AD8B4C9D7010AD8B4D0D7DAD7120065
:103C20004A0E00016E19D8A415D02F0E00016F6541
:103C300008D0350E00016F6104D000016F51D00F24
:103C400014D0D9EC26F0000E0001D96F000ED86F09
:103C5000120016D0470E00016E19D8A408D0520EDB
:103C600000016F19D8A403D0050E3A6E09D0D8C050
:103C700023F0D9C024F041EC23F0E5D7120000D0A6
:103C8000D8C01DF0D9C01EF0660E1F6E060E206E45
:103C900050EC26F01D501E10D8A404D03A501A0D36
:103CA0000E0E59D0D8C01DF0D9C01EF05A0E1F6E8E
:103CB000060E206E50EC26F01D501E10D8A404D025
:103CC0003A501A0D100E47D0D8C01DF0D9C01EF0C2
:103CD0004E0E1F6E060E206E50EC26F01D501E106C
:103CE000D8A404D03A501A0D120E35D0D8C01DF009
:103CF000D9C01EF05E0E1F6E060E206E50EC26F030
:103D00001D501E10D8A404D03A501A0D140E23D002
:103D1000D8C01DF0D9C01EF0560E1F6E060E206EC4
:103D200050EC26F01D501E10D8A404D03A501A0DA5
:103D3000160E11D0D8C01DF0D9C01EF0520E1F6E45
:103D4000060E206E50EC26F01D501E10D8A40FD089
:103D50003A501A0D180EF326000EF422000EF3242A
:103D60000001DA6F010EF4200001DB6F00D0DAC031
:103D7000C5F0DBC0C6F075EC19F0C5C0D8F0C6C000
:103D8000D9F012001200000E0001E66F000EE56F80
:103D9000D8EC28F0180E816E18EC27F0AEEC17F076
:103DA000F28EF28CD08E880E0001C36F130EC46F9A
:103DB000000EC56F000EC66F30EC21F0420E816E12
:103DC0002EEC0DF0000E426E000E0001E66F000EAC
:103DD000E56F1CD0C80E0001C36F000EC46F000E4B
:103DE000C56F000EC66F30EC21F0811EC80E0001B9
:103DF000C36F000EC46F000EC56F000EC66F30ECAF
:103E000021F0811E0001E54BE62B00D00001E651B8
:103E100007E1050E0001E55DD8B002D0DBD700D088
:103E20004FEC27F0F7EC11F0000E816E3A0E1F6E8A
:103E3000060E206E1DEC25F03FEC29F0000E00016F
:103E4000686F00D000016851D8B425D0000E000181
:103E5000686F080E3E18D8A40AD0080E37EC29F077
:103E6000200E37EC29F0080E37EC29F014D00D0E97
:103E70003E18D8A403D03FEC29F00DD03F0E3E18D9
:103E8000D8A405D00001E75137EC29F004D03E500A
:103E900037EC29F000D081EC23F00001C051000183
:103EA000C111D8B403D037EC03F000D00001665143
:103EB000D8A4C8D7D8EC15F0C5D777EF00F06A0EB4
:103EC0001D6E000E1E6EF9EC26F01DC0C4F01EC063
:103ED000C5F023C01DF024C01EF0F9EC26F01DC073
:103EE000C6F01EC0C7F00001C4510001C65D00014C
:103EF000C5510001C759D8A005D0000E246E000E90
:103F0000236E1200000E0001C96F010EC86F2FD082
:103F1000FF0E0001BE6FFF0E0001BF6FC8C0C0F0F2
:103F2000C9C0C1F00001BE510001C0270001BF514E
:103F30000001C1230001C0512324D96E0001C151E9
:103F40002420DA6E6A0E0001C825E16E000E000121
:103F5000C921E26EDE50E618D8B405D0000E246EFA
:103F6000000E236E12000001C84BC92B00D0FF0EBB
:103F70000001BE6FFF0E0001BF6FC4C0C0F0C5C01E
:103F8000C1F00001BE510001C0270001BF51000176
:103F9000C1230001C0510001C85D0001C1510001F1
:103FA000C959D8B01ED0FF0E0001BE6FFF0E000130
:103FB000BF6FC8C0C0F0C9C0C1F00001BE51000150
:103FC000C0270001BF510001C1230001C6510001FB
:103FD000C05D0001C7510001C159D8B002D098D7C7
:103FE00000D0000E246E010E236E1200120000019C
:103FF000DC6F0001DC513DEC24F0D1C0DAF0D2C01E
:10400000DBF00001DA2964E10001DB29D8A460D0EB
:104010009C0E1D6E010E1E6E000E206E140E1F6E85
:10402000FEEC27F0490E01019C6F4E0E01019D6FC1
:10403000490E01019E6F540E01019F6F5F0E010139
:10404000A06F430E0101A16F410E0101A26F4E0E40
:104050000101A36F410E0101A46F4C0E0101A56F78
:104060005F0E0101A66F000E206E0A0E1F6EDCC0EF
:104070001DF01E6A26EC22F01DC0BEF01EC0BFF06F
:10408000000E0001C16F0A0EC06F87EC21F0000125
:10409000BE51300F0101A76FDCC0BEF00001BF6B45
:1040A000000E0001C16F0A0EC06F87EC21F0000105
:1040B000BE51300F0101A86F9C0E236E010E246EBD
:1040C00001EC23F0000E0001D96F000ED86F120032
:1040D000DAC0D8F0DBC0D9F012001FC021F020C038
:1040E00022F03FEC29F015D021C0F6FF22C0F7FFE7
:1040F000F86A050EF76403D00800F55005D0F6CF36
:10410000E1FFF7CFE2FFE75037EC29F0214A222AFE
:1041100000D021C0F6FF22C0F7FFF86A050EF76451
:1041200003D00800F55005D0F6CFE1FFF7CFE2FF4E
:10413000E7505D0AD8B428D021C0F6FF22C0F7FFAF
:10414000F86A050EF76403D00800F55005D0F6CFE5
:10415000E1FFF7CFE2FFE7500D0AD8B415D021C038
:10416000F6FF22C0F7FFF86A050EF76403D00800D7
:10417000F55005D0F6CFE1FFF7CFE2FFE750000999
:10418000D8B402D0B1D700D021C0F6FF22C0F7FFCB
:10419000F86A050EF76403D00800F55005D0F6CF95
:1041A000E1FFF7CFE2FFE75037EC29F03FEC29F0D1
:1041B0001200030E206EE80E1F6EBFC01DF0C0C0BF
:1041C0001EF04BEC25F01DC024F01EC025F0000EA3
:1041D000276E0A0E266E27EC26F02450300F37EC9F
:1041E00029F0000E206E640E1F6EBFC01DF0C0C00F
:1041F0001EF04BEC25F01DC024F01EC025F0000E73
:10420000276E0A0E266E27EC26F02450300F37EC6E
:1042100029F0000E206E0A0E1F6EBFC01DF0C0C038
:104220001EF04BEC25F01DC024F01EC025F0000E42
:10423000276E0A0E266E27EC26F02450300F37EC3E
:1042400029F0BFC024F0C0C025F0000E276E0A0E72
:10425000266E27EC26F02450300F37EC29F01200A0
:10426000C3C01DF0C4C01EF0C5C01FF0C6C020F002
:10427000180E216E000E226E000E236E000E246EAC
:10428000DAEC21F01DC0C7F01EC0C8F0C3C01DF09D
:10429000C4C01EF0C5C01FF0C6C020F0180E216EAD
:1042A000000E226E000E236E000E246EB2EC24F07F
:1042B0001DC0C9F01EC0CAF009D03F0E266E550EB3
:1042C000E82EFED7262EFCD700F000D00001C7074D
:1042D000D8A0C8070001C729F0E10001C829D8B457
:1042E0000AD0EBD708D0030E266E980EE82EFED724
:1042F000262EFCD700D00001C907D8A0CA070001AC
:10430000C929F1E10001CA29D8A4EDD71200000E95
:10431000266E0001BFAF08D00001BE6DBF1FD8B030
:10432000BF2B010E266E00D00001C1AF06D00001E8
:10433000C06DC11FD8B0C12B00D00001C051000119
:10434000C111D8B428D0010E256E06D00001D89036
:10435000C037C137252A00D00001C1BF02D0F6D72F
:1043600000D00001C0510001BE5D0001C15100013B
:10437000BF59D8A009D00001C0510001BE5F0001A3
:10438000C1510001BF5B00D00001D890C133C033E0
:10439000252EE7D700D02650D8B406D00001BE6D38
:1043A000BF1FD8B0BF2B00D0BEC0BEF0BFC0BFF093
:1043B00012001200000E0001BE6F000EBF6F000E53
:1043C000C06F000EC16F2150221023102410D8B4EA
:1043D00034D0010E0001C26F08D0D89021362236A9
:1043E000233624360001C22B00D024BE02D0F5D7DC
:1043F00000D00001D890BE37BF37C037C137215039
:104400001D5C22501E5823501F5824502058D8A0FD
:104410000BD021501D5E22501E5A23501F5A24508B
:10442000205A0001BE8100D0D8902432233222329B
:1044300021320001C22FDDD700D0BEC01DF0BFC0A9
:104440001EF0C0C01FF0C1C020F01200000E226E8E
:1044500020AE07D01F6C201ED8B0202A010E226E7D
:1044600000D01EAE07D01D6C1E1ED8B01E2A010E35
:10447000221A00D0000E246E000E236E1F50201052
:10448000D8B421D0010E216E05D0D8901F36203629
:10449000212A00D020BE02D0F8D700D0D8902336F1
:1044A00024361F501D5C20501E58D8A006D01F5027
:1044B0001D5E20501E5A238000D0D89020321F321B
:1044C000212EECD700D02250D8B405D0236C241E66
:1044D000D8B0242A00D023C01DF024C01EF0120042
:1044E000120026C01DF027C01EF0000E206E050E23
:1044F0001F6EFEEC27F0000E0001C06F030EBF6FB1
:104500000001C0BF120001D0120024500F0B0001A7
:10451000BE6F090E0001BE650CD00001BF512624FC
:10452000D96E0001C0512720DA6E0001BE51370F4D
:104530000BD00001BF512624D96E0001C0512720A5
:10454000DA6E0001BE51300FDF6E00D024C01DF0C6
:1045500025C01EF0000E206E0A0E1F6E4BEC25F0DB
:104560001DC024F01EC025F00001BF07D8A0C00761
:10457000C7D712009F0E2FEC29F01F502FEC29F007
:1045800021502FEC29F021C027F0050E276402D01E
:104590001200120027501A0D0C0EF326000EF42202
:1045A000000EF324D96E010EF420DA6EDECF25F072
:1045B000DDCF26F025C022F026C023F0D890223689
:1045C0002336D8902236233622C025F023C026F089
:1045D00025507F0B2FEC29F025C022F026C023F0B8
:1045E000070E246ED89023322232242EFBD722507D
:1045F0007F0B2FEC29F0272A050E2764CBD712005A
:10460000120023C01DF024C01EF0F9EC26F01DC0DE
:10461000BEF01EC0BFF03FEC29F05B0E37EC29F076
:10462000000E0001C16F000EC06F0FD00001C0511D
:104630002324D96E0001C1512420DA6EDF5037ECFB
:1046400029F00001C04BC12B00D00001BE51000178
:10465000C05D0001BF510001C159D8A0E7D7200EAD
:1046600037EC29F0450E37EC29F0520E37EC29F0E3
:10467000520E37EC29F05D0E37EC29F03FEC29F0B3
:10468000120023C01DF024C01EF0F9EC26F01DC05E
:10469000BEF01EC0BFF03FEC29F05B0E37EC29F0F6
:1046A000000E0001C16F000EC06F0FD00001C0519D
:1046B0002324D96E0001C1512420DA6EDF5037EC7B
:1046C00029F00001C04BC12B00D00001BE510001F8
:1046D000C05D0001BF510001C159D8A0E7D7200E2D
:1046E00037EC29F04E0E37EC29F0410E37EC29F06B
:1046F0004B0E37EC29F05D0E37EC29F03FEC29F03A
:1047000012002A502C180AE12B502D18D8A406D0DC
:10471000000E0001C16F000EC06F12006A0E1D6E08
:10472000000E1E6E000E206E270E1F6EFEEC27F090
:104730006A0E236E000E246E2CC01DF02DC01EF0DC
:10474000000E206E270E1F6E59EC28F0000E1D245F
:10475000256E030E1E20266E36EC27F02C4A2D2ADD
:10476000060E2C182D10D8A404D0000E2D6E000EAD
:104770002C6E000E0001C16F010EC06F12001200FE
:10478000C1C01DF0C2C01EF0000E206E050E1F6ECF
:10479000FEEC27F0000E0001C46F030EC36F000192
:1047A000C4BF120001D012000001C3510001C12595
:1047B000D96E0001C4510001C221DA6EBFC024F0DD
:1047C000C0C025F0000E276E0A0E266E27EC26F0DC
:1047D0002450300FDF6EBFC01DF0C0C01EF0000EB1
:1047E000206E0A0E1F6E4BEC25F01DC0BFF01EC0E0
:1047F000C0F00001C307D8A0C407D1D7120071A22E
:104800000ED071980A0E0001C36F000EC46F000E27
:10481000C56F000EC66F30EC21F0718800D0B50E68
:10482000326E000E336ECBC062F0CCC063F0FF0E70
:104830000001CD6FFF0E0001CE6F62C0CFF063C0EC
:10484000D0F00001CD510001CF270001CE51000171
:10485000D023B50E0001CF25346E000E0001D0210B
:10486000356EB50E1D6E000E1E6E000E206E030E10
:104870001F6EFEEC27F0A38A12000001D56F000E18
:104880000001D76F000ED66F000E0001CC6F020E34
:10489000CB6FFFEC23F0900E2FEC29F00001D551E7
:1048A0002FEC29F0A7EC25F01D501E10D8A404D041
:1048B0000001D169D26912000001B6510001D46F24
:1048C000D36B0001B5510001D3250001D66F000E56
:1048D0000001D4210001D76F0001D890D733D6331F
:1048E0000001D890D733D633D6C0D1F0D7C0D2F09C
:1048F0001200120003EE00F0EA0EEE6AE806FDE197
:1049000002EE00F09C0EEE6AE806FDE101EE00F01A
:10491000E40EEE6AE806FDE100EE60F05E0EEE6A7F
:10492000E806FDE100EE28F01A0EEE6AE806FDE169
:10493000A60EF66E520EF76E000EF86E0900F5CF59
:10494000E8F0A40EF66E520EF76E000EF86E090037
:10495000F5CF42F00900F5CF43F0000EF86E0001EC
:10496000C3EF1EF02150221023102410D8B429D0F8
:10497000010E256E07D0D8902136223623362436F4
:10498000252A00D024BE02D0F6D700D021501D5CCD
:1049900022501E5823501F5824502058D8A009D008
:1049A00021501D5E22501E5A23501F5A2450205A57
:1049B00000D0D8902432233222322132252EE6D75D
:1049C00000D01DC01DF01EC01EF01FC01FF020C073
:1049D00020F01200000E0001D66F000ED56F000E01
:1049E0000001CC6F010ECB6FFFEC23F0A10E2FEC7A
:1049F00029F0A7EC25F01D501E10D8A404D000010A
:104A0000D169D26912000001D5510001B61100012F
:104A1000D56F0001D6510001D66F0001D5510001BC
:104A2000D36F0001B5510001D56FD3C0D6F0D5C00A
:104A3000D1F0D6C0D2F0120012001FC021F020C069
:104A400022F015D021C0F6FF22C0F7FFF86A050E4C
:104A5000F76403D00800F55005D0F6CFE1FFF7CF9B
:104A6000E2FFE75037EC29F0214A222A00D021C08A
:104A7000F6FF22C0F7FFF86A050EF76403D00800BE
:104A8000F55005D0F6CFE1FFF7CFE2FFE750000980
:104A9000D8A4D8D71200000E236E000E226E1F502D
:104AA0002010D8B421D0010E216E05D0D8901F3629
:104AB0002036212A00D020BE02D0F8D700D0D890CE
:104AC000223623361F501D5C20501E58D8A006D019
:104AD0001F501D5E20501E5A228000D0D8902032D8
:104AE0001F32212EECD700D022C01DF023C01EF0B3
:104AF0001200000163BF29D00001635104E10001ED
:104B00006205D8A022D03250345C33503558D8A03A
:104B10001CD032C0D9FF33C0DAFF3DC0DFFF3450B4
:104B2000321810E135503318D8A40CD0000E000113
:104B3000616F010E606F000E0001636F000E626F07
:104B4000A39A03D0324A332A00D0A49A1200000E4E
:104B5000296E000E286E28C01FF029C020F000D05A
:104B6000E80E1F5CFD0E2058D8B008D0000160058B
:104B700000016111D8B402D0EED700D0000160511D
:104B800000016111D8B40AD0000E0001616F000E5F
:104B9000606F000E1E6E010E1D6E1200000E1E6E66
:104BA000000E1D6E12001200246E1FC021F020C0E6
:104BB00022F0D89021362236D8902136223621C0D4
:104BC0001FF022C020F0840E2FEC29F024502FEC8F
:104BD00029F01F507F0B2FEC29F01FC021F020C0BF
:104BE00022F0070E236ED89022322132232EFBD7DB
:104BF00021507F0B2FEC29F0120012002E502F10A5
:104C0000D8B41200000E2F6E000E2E6E000E256E10
:104C1000050E256402D01200120025501A0D160E42
:104C2000F326000EF422000EF324D96E010EF420B8
:104C3000DA6EDECF1FF0DDCF20F02550B9EC26F084
:104C4000252A050E2564E9D712001200120026500D
:104C50002710D8B420D0010E0001BE6F06D0D89026
:104C6000263627360001BE2B00D027BE02D0F7D74C
:104C700000D02650245C27502558D8A005D02650B7
:104C8000245E2750255A00D0D890273226320001C2
:104C9000BE2FEFD700D024C024F025C025F012008D
:104CA00005D01D4A1E2A1F4A202A00D01DC0D9FF48
:104CB0001EC0DAFFDF50216E1FC0F6FF20C0F7FFD5
:104CC0000800F55000082124226E2250D8A409D0F3
:104CD0001DC0D9FF1EC0DAFFDF50D8B402D0E1D723
:104CE00000D022501D6E1E6A1DBE1E06120012004C
:104CF000000E0001DA6F050E0001DA6502D0120025
:104D000012000001DA513DEC24F0D1C0D8F0D2C03D
:104D1000D9F0D8C01FF0D9C020F00001DA51D4EC8E
:104D200025F00001DA2B050E0001DA65EAD7120042
:104D30001200246E890E2FEC29F024502FEC29F05C
:104D40001F507F0B2FEC29F01FC021F020C022F054
:104D5000070E236ED89022322132232EFBD721500A
:104D60007F0B2FEC29F0000E206E010E1F6E12003B
:104D70001200246E870E2FEC29F024502FEC29F01E
:104D80001F507F0B2FEC29F01FC021F020C022F014
:104D9000070E236ED89022322132232EFBD72150CA
:104DA0007F0B2FEC29F0000E206E010E1F6E1200FB
:104DB00012003FEC29F05B0E37EC29F04A0E37EC7D
:104DC00029F04E0E37EC29F0540E37EC29F0200E66
:104DD00037EC29F04E0E37EC29F0410E37EC29F074
:104DE0004B0E37EC29F05D0E37EC29F03FEC29F043
:104DF00012001DC021F01EC022F003D0214A222A39
:104E000000D021C0D9FF22C0DAFFDF50D8A4F6D7E6
:104E10001DC01FF01EC020F01F1E201E1F4A202A8A
:104E200021501F241D6E225020201E6E12001200E1
:104E30003F0E0001E76FC00E946E000E826E9496D6
:104E40008296B886030EB06E400EAF6EAC84640ED0
:104E50000001C36F000EC46F000EC56F000EC66F59
:104E600030EC21F09E9A9F8A9D8A120023C0BEF0EA
:104E700024C0BFF006D00001BE4BBF2B254A262A16
:104E800000D025C0D9FF26C0DAFFBEC0E1FFBFC0F9
:104E9000E2FFDFCFE7FFE750D8A4EDD7120070861E
:104EA000030E766E400E756E7284728A7298718EE1
:104EB0007188640E0001C36F000EC46F000EC56FD1
:104EC000000EC66F30EC21F0A49AA58AA38A1200C6
:104ED00016C216F117C217F130C230F131C231F1EA
:104EE0004AC24AF14BC24BF164C264F165C265F13A
:104EF0007EC27EF17FC27FF198C298F199C299F18A
:104F0000120018C218F119C219F132C232F133C2BB
:104F100033F14CC24CF14DC24DF166C266F167C22D
:104F200067F180C280F181C281F19AC29AF19BC27D
:104F30009BF112000CC20CF10DC20DF126C226F13C
:104F400027C227F140C240F141C241F15AC25AF191
:104F50005BC25BF174C274F175C275F18EC28EF1E1
:104F60008FC28FF112000CC10CF20DC10DF226C1DF
:104F700026F227C127F240C140F241C141F25AC195
:104F80005AF25BC15BF274C174F275C175F28EC1E5
:104F90008EF28FC18FF2120016C116F217C117F2EE
:104FA00030C130F231C131F24AC14AF24BC14BF249
:104FB00064C164F265C165F27EC17EF27FC17FF299
:104FC00098C198F299C199F2120018C118F219C14A
:104FD00019F232C132F233C133F24CC14CF24DC13D
:104FE0004DF266C166F267C167F280C180F281C18D
:104FF00081F29AC19AF29BC19BF21200000E226EBE
:10500000000E216E0BD021501D24D96E22501E207F
:10501000DA6E000EDF6E214A222A00D01F50215C7A
:1050200020502258D8A0EFD71200066E010E056E50
:105030007B0E066004D0610E066009D000D00650D9
:10504000C7EC28F0D8B003D0000E056E00D005C024
:1050500004F0043012001200000E0C6E000E0B6EF5
:105060000BD00B500724D96E0C500820DA6E000EBE
:10507000DF6E0B4A0C2A00D009500B5C0A500C580A
:10508000D8A0EFD71200000E0001CC6F010ECB6F3D
:10509000FFEC23F0930E2FEC29F0A7EC25F01D5028
:1050A0001E10D8A402D0FF0E12000001B55112004C
:1050B00012001D501F02F3CF21F0F4CF22F01D503B
:1050C0002002F35022261E501F02F350222621C038
:1050D0001DF022C01EF01200120001500302F3CF97
:1050E00005F0F4CF06F001500402F35006260250FA
:1050F0000302F350062605C001F006C002F01200BC
:105100001200F20E381671AC05D0389071A002D0A2
:10511000388000D071B4388471B2388674CF01F011
:10512000015012001200F20E3716ABAC05D03790CA
:10513000ABA002D0378000D0ABB43784ABB2378697
:10514000AECF01F00150120012001F6E000E1E6E55
:105150003A0E1F6006D02F0E1F6403D0010E1E6E84
:1051600000D01EC01DF01D3012001200026E000E95
:10517000036E3A0E026006D02F0E026403D0010EB9
:10518000036E00D003C001F0013012001200036E64
:10519000000E026E5B0E036006D0400E036403D067
:1051A000010E026E00D002C001F0013012001200A8
:1051B000000E0F01396F000E0F013A6F000E0F0144
:1051C0003B6F799E789E4DEC29F092808080120092
:1051D000000E396E2A4A2B2A060E2A182B10D8A444
:1051E0001200000E2B6E000E2A6E12001200000E2E
:1051F0000001696F000E0001646F000E0001656F11
:105200000001E8691200016E7B0E016005D0600E9E
:10521000016402D0019A00D00150120012001D6EEC
:1052200072AC05D0729038A202D0728000D01DC03E
:1052300073FF12001D6EACAC05D0AC9037A202D04B
:10524000AC8000D01DC0ADFF12004150D8B404D0D6
:10525000000E416E40501200000E120012001E6E31
:1052600000D072A2FED71E500FEC29F012001E6E65
:1052700000D0ACA2FED71E501AEC29F012000D0E81
:1052800037EC29F00A0E37EC29F01200F294284A84
:10529000292AD768B00ED66E1200E00E956E000E69
:0852A000836E12000101FF0002
:020000040030CA
:0E000000FF231F3CFFBD81FF0FC00FE00F402C
:00000001FF
